{
  "address": "0xD7ebbA68f06a6797c85B223225384DEFAD448C3A",
  "abi": [
    {
      "inputs": [
        {
          "internalType": "address",
          "name": "vrfCordinatorV2",
          "type": "address"
        },
        {
          "internalType": "uint256",
          "name": "entranceFee",
          "type": "uint256"
        },
        {
          "internalType": "bytes32",
          "name": "gasLane",
          "type": "bytes32"
        },
        {
          "internalType": "uint64",
          "name": "subscriptionId",
          "type": "uint64"
        },
        {
          "internalType": "uint32",
          "name": "callbackLimit",
          "type": "uint32"
        },
        {
          "internalType": "uint256",
          "name": "interval",
          "type": "uint256"
        }
      ],
      "stateMutability": "nonpayable",
      "type": "constructor"
    },
    {
      "inputs": [
        {
          "internalType": "address",
          "name": "have",
          "type": "address"
        },
        {
          "internalType": "address",
          "name": "want",
          "type": "address"
        }
      ],
      "name": "OnlyCoordinatorCanFulfill",
      "type": "error"
    },
    {
      "inputs": [],
      "name": "Raffle__NotEnoughEthEntered",
      "type": "error"
    },
    {
      "inputs": [],
      "name": "Raffle__NotOpen",
      "type": "error"
    },
    {
      "inputs": [],
      "name": "Raffle__TransferFailed",
      "type": "error"
    },
    {
      "inputs": [
        {
          "internalType": "uint256",
          "name": "currentBalance",
          "type": "uint256"
        },
        {
          "internalType": "uint256",
          "name": "numPlayer",
          "type": "uint256"
        },
        {
          "internalType": "uint256",
          "name": "raffleStat",
          "type": "uint256"
        }
      ],
      "name": "Raffle__UpkeepNotNeeded",
      "type": "error"
    },
    {
      "anonymous": false,
      "inputs": [
        {
          "indexed": true,
          "internalType": "address",
          "name": "player",
          "type": "address"
        }
      ],
      "name": "RaffleEnter",
      "type": "event"
    },
    {
      "anonymous": false,
      "inputs": [
        {
          "indexed": true,
          "internalType": "uint256",
          "name": "requestId",
          "type": "uint256"
        }
      ],
      "name": "RequestedRaffleWinner",
      "type": "event"
    },
    {
      "anonymous": false,
      "inputs": [
        {
          "indexed": true,
          "internalType": "address",
          "name": "winner",
          "type": "address"
        }
      ],
      "name": "WinnerPicked",
      "type": "event"
    },
    {
      "inputs": [
        {
          "internalType": "bytes",
          "name": "perforamData",
          "type": "bytes"
        }
      ],
      "name": "checkUpkeep",
      "outputs": [
        {
          "internalType": "bool",
          "name": "upkeepNeeded",
          "type": "bool"
        },
        {
          "internalType": "bytes",
          "name": "",
          "type": "bytes"
        }
      ],
      "stateMutability": "view",
      "type": "function"
    },
    {
      "inputs": [],
      "name": "enterRaffle",
      "outputs": [],
      "stateMutability": "payable",
      "type": "function"
    },
    {
      "inputs": [],
      "name": "getEnteranceFee",
      "outputs": [
        {
          "internalType": "uint256",
          "name": "",
          "type": "uint256"
        }
      ],
      "stateMutability": "view",
      "type": "function"
    },
    {
      "inputs": [],
      "name": "getEntranceFee",
      "outputs": [
        {
          "internalType": "uint256",
          "name": "",
          "type": "uint256"
        }
      ],
      "stateMutability": "view",
      "type": "function"
    },
    {
      "inputs": [],
      "name": "getInterval",
      "outputs": [
        {
          "internalType": "uint256",
          "name": "",
          "type": "uint256"
        }
      ],
      "stateMutability": "view",
      "type": "function"
    },
    {
      "inputs": [],
      "name": "getLastTimeStamp",
      "outputs": [
        {
          "internalType": "uint256",
          "name": "",
          "type": "uint256"
        }
      ],
      "stateMutability": "view",
      "type": "function"
    },
    {
      "inputs": [],
      "name": "getNumWords",
      "outputs": [
        {
          "internalType": "uint256",
          "name": "",
          "type": "uint256"
        }
      ],
      "stateMutability": "pure",
      "type": "function"
    },
    {
      "inputs": [],
      "name": "getNumberOfPlayers",
      "outputs": [
        {
          "internalType": "uint256",
          "name": "",
          "type": "uint256"
        }
      ],
      "stateMutability": "view",
      "type": "function"
    },
    {
      "inputs": [
        {
          "internalType": "uint256",
          "name": "index",
          "type": "uint256"
        }
      ],
      "name": "getPlayer",
      "outputs": [
        {
          "internalType": "address",
          "name": "",
          "type": "address"
        }
      ],
      "stateMutability": "view",
      "type": "function"
    },
    {
      "inputs": [],
      "name": "getRaffleState",
      "outputs": [
        {
          "internalType": "enum Raffle.RaffleState",
          "name": "",
          "type": "uint8"
        }
      ],
      "stateMutability": "view",
      "type": "function"
    },
    {
      "inputs": [],
      "name": "getRecentWinner",
      "outputs": [
        {
          "internalType": "address",
          "name": "",
          "type": "address"
        }
      ],
      "stateMutability": "view",
      "type": "function"
    },
    {
      "inputs": [],
      "name": "getRequestConfirmations",
      "outputs": [
        {
          "internalType": "uint256",
          "name": "",
          "type": "uint256"
        }
      ],
      "stateMutability": "pure",
      "type": "function"
    },
    {
      "inputs": [
        {
          "internalType": "bytes",
          "name": "",
          "type": "bytes"
        }
      ],
      "name": "performUpkeep",
      "outputs": [],
      "stateMutability": "nonpayable",
      "type": "function"
    },
    {
      "inputs": [
        {
          "internalType": "uint256",
          "name": "requestId",
          "type": "uint256"
        },
        {
          "internalType": "uint256[]",
          "name": "randomWords",
          "type": "uint256[]"
        }
      ],
      "name": "rawFulfillRandomWords",
      "outputs": [],
      "stateMutability": "nonpayable",
      "type": "function"
    }
  ],
  "transactionHash": "0x387292856e6d7dea7afdd03bc645b2a654d935e9c22610e97e1aebd34813aedd",
  "args": [
    "0x6168499c0cFfCaCD319c818142124B7A15E857ab",
    "10000000000000000",
    "0xd89b2bf150e3b9e13446986e571fb9cab24b13cea0a43ea20a6049a85cc807cc",
    "20694",
    "500000",
    30
  ],
  "numDeployments": 1,
  "solcInputHash": "9b2f515143c7728270dbb38880c93106",
  "bytecode": "0x6101606040523480156200001257600080fd5b50604051620018c9380380620018c9833981810160405281019062000038919062000294565b858073ffffffffffffffffffffffffffffffffffffffff1660808173ffffffffffffffffffffffffffffffffffffffff1681525050508460a081815250508573ffffffffffffffffffffffffffffffffffffffff166101408173ffffffffffffffffffffffffffffffffffffffff16815250508360c081815250508267ffffffffffffffff1660e08167ffffffffffffffff16815250508163ffffffff166101008163ffffffff16815250506000600360006101000a81548160ff021916908360018111156200010d576200010c62000330565b5b0217905550426002819055508061012081815250505050505050506200035f565b600080fd5b600073ffffffffffffffffffffffffffffffffffffffff82169050919050565b6000620001608262000133565b9050919050565b620001728162000153565b81146200017e57600080fd5b50565b600081519050620001928162000167565b92915050565b6000819050919050565b620001ad8162000198565b8114620001b957600080fd5b50565b600081519050620001cd81620001a2565b92915050565b6000819050919050565b620001e881620001d3565b8114620001f457600080fd5b50565b6000815190506200020881620001dd565b92915050565b600067ffffffffffffffff82169050919050565b6200022d816200020e565b81146200023957600080fd5b50565b6000815190506200024d8162000222565b92915050565b600063ffffffff82169050919050565b6200026e8162000253565b81146200027a57600080fd5b50565b6000815190506200028e8162000263565b92915050565b60008060008060008060c08789031215620002b457620002b36200012e565b5b6000620002c489828a0162000181565b9650506020620002d789828a01620001bc565b9550506040620002ea89828a01620001f7565b9450506060620002fd89828a016200023c565b93505060806200031089828a016200027d565b92505060a06200032389828a01620001bc565b9150509295509295509295565b7f4e487b7100000000000000000000000000000000000000000000000000000000600052602160045260246000fd5b60805160a05160c05160e0516101005161012051610140516114f3620003d6600039600061066201526000818161085901526108c7015260006106e2015260006106bf0152600061069e0152600081816103400152818161043d01526107d801526000818161037d01526103d101526114f36000f3fe6080604052600436106100dd5760003560e01c806353a2c19a1161007f57806391ad27b41161005957806391ad27b41461027e578063c1c244e8146102a9578063e55ae4e8146102d4578063fd6673f514610311576100dd565b806353a2c19a146101ea5780635f1b0fd8146102155780636e04ff0d14610240576100dd565b80632cfcc539116100bb5780632cfcc539146101615780634585e33b1461016b578063473f1ddc14610194578063535bf50f146101bf576100dd565b806309bc33a7146100e2578063115cbaf51461010d5780631fe543e314610138575b600080fd5b3480156100ee57600080fd5b506100f761033c565b6040516101049190610c39565b60405180910390f35b34801561011957600080fd5b50610122610364565b60405161012f9190610ccb565b60405180910390f35b34801561014457600080fd5b5061015f600480360381019061015a9190610e7f565b61037b565b005b61016961043b565b005b34801561017757600080fd5b50610192600480360381019061018d9190610f36565b6105aa565b005b3480156101a057600080fd5b506101a96107aa565b6040516101b69190610fc4565b60405180910390f35b3480156101cb57600080fd5b506101d46107d4565b6040516101e19190610c39565b60405180910390f35b3480156101f657600080fd5b506101ff6107fc565b60405161020c9190610c39565b60405180910390f35b34801561022157600080fd5b5061022a610809565b6040516102379190610c39565b60405180910390f35b34801561024c57600080fd5b5061026760048036038101906102629190611094565b610816565b604051610275929190611180565b60405180910390f35b34801561028a57600080fd5b506102936108c3565b6040516102a09190610c39565b60405180910390f35b3480156102b557600080fd5b506102be6108eb565b6040516102cb9190610c39565b60405180910390f35b3480156102e057600080fd5b506102fb60048036038101906102f691906111b0565b6108f5565b6040516103089190610fc4565b60405180910390f35b34801561031d57600080fd5b5061032661093c565b6040516103339190610c39565b60405180910390f35b60007f0000000000000000000000000000000000000000000000000000000000000000905090565b6000600360009054906101000a900460ff16905090565b7f000000000000000000000000000000000000000000000000000000000000000073ffffffffffffffffffffffffffffffffffffffff163373ffffffffffffffffffffffffffffffffffffffff161461042d57337f00000000000000000000000000000000000000000000000000000000000000006040517f1cf993f40000000000000000000000000000000000000000000000000000000081526004016104249291906111dd565b60405180910390fd5b6104378282610948565b5050565b7f0000000000000000000000000000000000000000000000000000000000000000341015610495576040517f066d781f00000000000000000000000000000000000000000000000000000000815260040160405180910390fd5b600060018111156104a9576104a8610c54565b5b600360009054906101000a900460ff1660018111156104cb576104ca610c54565b5b14610502576040517f1425571c00000000000000000000000000000000000000000000000000000000815260040160405180910390fd5b6000339080600181540180825580915050600190039060005260206000200160009091909190916101000a81548173ffffffffffffffffffffffffffffffffffffffff021916908373ffffffffffffffffffffffffffffffffffffffff1602179055503373ffffffffffffffffffffffffffffffffffffffff167f0805e1d667bddb8a95f0f09880cf94f403fb596ce79928d9f29b74203ba284d460405160405180910390a2565b60006105c460405180602001604052806000815250610816565b509050806106335747600080549050600360009054906101000a900460ff1660018111156105f5576105f4610c54565b5b6040517f584327aa00000000000000000000000000000000000000000000000000000000815260040161062a93929190611206565b60405180910390fd5b6001600360006101000a81548160ff0219169083600181111561065957610658610c54565b5b021790555060007f000000000000000000000000000000000000000000000000000000000000000073ffffffffffffffffffffffffffffffffffffffff16635d3b1d307f00000000000000000000000000000000000000000000000000000000000000007f000000000000000000000000000000000000000000000000000000000000000060037f000000000000000000000000000000000000000000000000000000000000000060016040518663ffffffff1660e01b81526004016107239594939291906112f0565b602060405180830381600087803b15801561073d57600080fd5b505af1158015610751573d6000803e3d6000fd5b505050506040513d601f19601f820116820180604052508101906107759190611358565b9050807fcd6e45c8998311cab7e9d4385596cac867e20a0587194b954fa3a731c93ce78b60405160405180910390a250505050565b6000600160009054906101000a900473ffffffffffffffffffffffffffffffffffffffff16905090565b60007f0000000000000000000000000000000000000000000000000000000000000000905090565b6000600161ffff16905090565b6000600361ffff16905090565b600060606000600360009054906101000a900460ff16600181111561083e5761083d610c54565b5b6000600181111561085257610851610c54565b5b14905060007f00000000000000000000000000000000000000000000000000000000000000006002544261088691906113b4565b119050600080600080549050119050600080471190508380156108a65750825b80156108af5750815b80156108b85750805b955050505050915091565b60007f0000000000000000000000000000000000000000000000000000000000000000905090565b6000600254905090565b600080828154811061090a576109096113e8565b5b9060005260206000200160009054906101000a900473ffffffffffffffffffffffffffffffffffffffff169050919050565b60008080549050905090565b6000808054905082600081518110610963576109626113e8565b5b60200260200101516109759190611446565b9050600080828154811061098c5761098b6113e8565b5b9060005260206000200160009054906101000a900473ffffffffffffffffffffffffffffffffffffffff16905080600160006101000a81548173ffffffffffffffffffffffffffffffffffffffff021916908373ffffffffffffffffffffffffffffffffffffffff1602179055506000600360006101000a81548160ff02191690836001811115610a2057610a1f610c54565b5b0217905550600067ffffffffffffffff811115610a4057610a3f610d3c565b5b604051908082528060200260200182016040528015610a6e5781602001602082028036833780820191505090505b5060009080519060200190610a84929190610b79565b504260028190555060008173ffffffffffffffffffffffffffffffffffffffff1647604051610ab2906114a8565b60006040518083038185875af1925050503d8060008114610aef576040519150601f19603f3d011682016040523d82523d6000602084013e610af4565b606091505b5050905080610b2f576040517fa1d04b3900000000000000000000000000000000000000000000000000000000815260040160405180910390fd5b8173ffffffffffffffffffffffffffffffffffffffff167f5b690ec4a06fe979403046eaeea5b3ce38524683c3001f662c8b5a829632f7df60405160405180910390a25050505050565b828054828255906000526020600020908101928215610bf2579160200282015b82811115610bf15782518260006101000a81548173ffffffffffffffffffffffffffffffffffffffff021916908373ffffffffffffffffffffffffffffffffffffffff16021790555091602001919060010190610b99565b5b509050610bff9190610c03565b5090565b5b80821115610c1c576000816000905550600101610c04565b5090565b6000819050919050565b610c3381610c20565b82525050565b6000602082019050610c4e6000830184610c2a565b92915050565b7f4e487b7100000000000000000000000000000000000000000000000000000000600052602160045260246000fd5b60028110610c9457610c93610c54565b5b50565b6000819050610ca582610c83565b919050565b6000610cb582610c97565b9050919050565b610cc581610caa565b82525050565b6000602082019050610ce06000830184610cbc565b92915050565b6000604051905090565b600080fd5b600080fd5b610d0381610c20565b8114610d0e57600080fd5b50565b600081359050610d2081610cfa565b92915050565b600080fd5b6000601f19601f8301169050919050565b7f4e487b7100000000000000000000000000000000000000000000000000000000600052604160045260246000fd5b610d7482610d2b565b810181811067ffffffffffffffff82111715610d9357610d92610d3c565b5b80604052505050565b6000610da6610ce6565b9050610db28282610d6b565b919050565b600067ffffffffffffffff821115610dd257610dd1610d3c565b5b602082029050602081019050919050565b600080fd5b6000610dfb610df684610db7565b610d9c565b90508083825260208201905060208402830185811115610e1e57610e1d610de3565b5b835b81811015610e475780610e338882610d11565b845260208401935050602081019050610e20565b5050509392505050565b600082601f830112610e6657610e65610d26565b5b8135610e76848260208601610de8565b91505092915050565b60008060408385031215610e9657610e95610cf0565b5b6000610ea485828601610d11565b925050602083013567ffffffffffffffff811115610ec557610ec4610cf5565b5b610ed185828601610e51565b9150509250929050565b600080fd5b60008083601f840112610ef657610ef5610d26565b5b8235905067ffffffffffffffff811115610f1357610f12610edb565b5b602083019150836001820283011115610f2f57610f2e610de3565b5b9250929050565b60008060208385031215610f4d57610f4c610cf0565b5b600083013567ffffffffffffffff811115610f6b57610f6a610cf5565b5b610f7785828601610ee0565b92509250509250929050565b600073ffffffffffffffffffffffffffffffffffffffff82169050919050565b6000610fae82610f83565b9050919050565b610fbe81610fa3565b82525050565b6000602082019050610fd96000830184610fb5565b92915050565b600080fd5b600067ffffffffffffffff821115610fff57610ffe610d3c565b5b61100882610d2b565b9050602081019050919050565b82818337600083830152505050565b600061103761103284610fe4565b610d9c565b90508281526020810184848401111561105357611052610fdf565b5b61105e848285611015565b509392505050565b600082601f83011261107b5761107a610d26565b5b813561108b848260208601611024565b91505092915050565b6000602082840312156110aa576110a9610cf0565b5b600082013567ffffffffffffffff8111156110c8576110c7610cf5565b5b6110d484828501611066565b91505092915050565b60008115159050919050565b6110f2816110dd565b82525050565b600081519050919050565b600082825260208201905092915050565b60005b83811015611132578082015181840152602081019050611117565b83811115611141576000848401525b50505050565b6000611152826110f8565b61115c8185611103565b935061116c818560208601611114565b61117581610d2b565b840191505092915050565b600060408201905061119560008301856110e9565b81810360208301526111a78184611147565b90509392505050565b6000602082840312156111c6576111c5610cf0565b5b60006111d484828501610d11565b91505092915050565b60006040820190506111f26000830185610fb5565b6111ff6020830184610fb5565b9392505050565b600060608201905061121b6000830186610c2a565b6112286020830185610c2a565b6112356040830184610c2a565b949350505050565b6000819050919050565b6112508161123d565b82525050565b600067ffffffffffffffff82169050919050565b61127381611256565b82525050565b600061ffff82169050919050565b61129081611279565b82525050565b600063ffffffff82169050919050565b6112af81611296565b82525050565b6000819050919050565b60006112da6112d56112d084611279565b6112b5565b611296565b9050919050565b6112ea816112bf565b82525050565b600060a0820190506113056000830188611247565b611312602083018761126a565b61131f6040830186611287565b61132c60608301856112a6565b61133960808301846112e1565b9695505050505050565b60008151905061135281610cfa565b92915050565b60006020828403121561136e5761136d610cf0565b5b600061137c84828501611343565b91505092915050565b7f4e487b7100000000000000000000000000000000000000000000000000000000600052601160045260246000fd5b60006113bf82610c20565b91506113ca83610c20565b9250828210156113dd576113dc611385565b5b828203905092915050565b7f4e487b7100000000000000000000000000000000000000000000000000000000600052603260045260246000fd5b7f4e487b7100000000000000000000000000000000000000000000000000000000600052601260045260246000fd5b600061145182610c20565b915061145c83610c20565b92508261146c5761146b611417565b5b828206905092915050565b600081905092915050565b50565b6000611492600083611477565b915061149d82611482565b600082019050919050565b60006114b382611485565b915081905091905056fea2646970667358221220ade445453869e561df7795877eb176ef7819e92b79251b788a9f572bd6209df364736f6c63430008090033",
  "devdoc": {
    "kind": "dev",
    "methods": {},
    "version": 1
  },
  "userdoc": {
    "kind": "user",
    "methods": {},
    "version": 1
  },
  "storageLayout": {
    "storage": [
      {
        "astId": 925,
        "contract": "contracts/Raffle.sol:Raffle",
        "label": "s_players",
        "offset": 0,
        "slot": "0",
        "type": "t_array(t_address_payable)dyn_storage"
      },
      {
        "astId": 939,
        "contract": "contracts/Raffle.sol:Raffle",
        "label": "s_recentWinner",
        "offset": 0,
        "slot": "1",
        "type": "t_address"
      },
      {
        "astId": 941,
        "contract": "contracts/Raffle.sol:Raffle",
        "label": "s_lastTimeStamp",
        "offset": 0,
        "slot": "2",
        "type": "t_uint256"
      },
      {
        "astId": 946,
        "contract": "contracts/Raffle.sol:Raffle",
        "label": "s_raffleState",
        "offset": 0,
        "slot": "3",
        "type": "t_enum(RaffleState)920"
      }
    ],
    "types": {
      "t_address": {
        "encoding": "inplace",
        "label": "address",
        "numberOfBytes": "20"
      },
      "t_address_payable": {
        "encoding": "inplace",
        "label": "address payable",
        "numberOfBytes": "20"
      },
      "t_array(t_address_payable)dyn_storage": {
        "base": "t_address_payable",
        "encoding": "dynamic_array",
        "label": "address payable[]",
        "numberOfBytes": "32"
      },
      "t_enum(RaffleState)920": {
        "encoding": "inplace",
        "label": "enum Raffle.RaffleState",
        "numberOfBytes": "1"
      },
      "t_uint256": {
        "encoding": "inplace",
        "label": "uint256",
        "numberOfBytes": "32"
      }
    }
  }
}